:100000000C9462000C948A000C948A000C948A0070
:100010000C948A000C948A000C948A000C948A0038
:100020000C948A000C948A000C948A000C948A0028
:100030000C948A000C948A000C948A000C948A0018
:100040000C949D020C948A000C940D030C94E7020E
:100050000C948A000C948A000C948A000C948A00F8
:100060000C948A000C948A000000000024002700F1
:100070002A000000000023002600290000000000E4
:10008000250028002B0004040404040404040202D4
:100090000202020203030303030301020408102007
:1000A0004080010204081020010204081020000012
:1000B0000008000201000003040700000000000027
:1000C0000000030511241FBECFEFD8E0DEBFCDBF77
:1000D00011E0A0E0B1E0EAE7FAE002C005900D927D
:1000E000A436B107D9F722E0A4E6B1E001C01D9221
:1000F000A232B207E1F710E0C2E6D0E004C02197D7
:10010000FE010E943005C136D107C9F70E943F03A6
:100110000C943B050C940000E5E8F1E0A089B1895E
:1001200082E08C93A485B5851C92A685B7858FEC5B
:100130008C93108EA489B58986E08C93A289B389AB
:100140008C9180618C93A289B3898C9188608C9307
:10015000A289B3898C9180688C930288F389E02D01
:1001600080818F7D80830895833081F028F48130F1
:1001700099F08230A1F008958730A9F08830B9F065
:100180008430D1F4809180008F7D03C08091800005
:100190008F7780938000089584B58F7702C084B5EF
:1001A0008F7D84BD08958091B0008F7703C08091CA
:1001B000B0008F7D8093B00008951F93CF93DF939D
:1001C000E8EBF0E09491E4EAF0E0D491E0E9F0E0CB
:1001D000C491CC23D9F0182F992319F0892F0E94AC
:1001E000B400EC2FF0E0EE0FFF1FE458FF4FA59195
:1001F000B4918FB7F894111105C09C91ED2FE09543
:10020000E92302C0EC91ED2BEC938FBFDF91CF91EE
:100210001F910895CF93DF93282F30E0F901E25525
:10022000FF4F8491F901E656FF4FD491F901EA5747
:10023000FF4FC491CC2391F081110E94B400EC2FA8
:10024000F0E0EE0FFF1FEE58FF4FA591B491EC9137
:10025000ED2381E090E021F480E002C080E090E0B6
:10026000DF91CF910895CF93DF9390E0FC01E656A4
:10027000FF4F2491FC01EA57FF4F8491882361F1DD
:1002800090E0880F991FFC01E859FF4FC591D49168
:10029000FC01E458FF4FA591B491611109C09FB7CB
:1002A000F8948881209582238883EC912E230BC0BB
:1002B000623061F49FB7F8943881822F8095832350
:1002C0008883EC912E2B2C939FBF06C08FB7F89498
:1002D000E8812E2B28838FBFDF91CF910895FC01F9
:1002E000538D448D252F30E0842F90E0821B930B9B
:1002F000541710F0CF96089501970895FC01918D41
:10030000828D981761F0828DDF01A80FB11D5D9677
:100310008C91928D9F5F9F73928F90E008958FEFE5
:100320009FEF0895FC01918D828D981731F0828D99
:10033000E80FF11D858D90E008958FEF9FEF0895F0
:10034000FC01918D228D892F90E0805C9F4F821B54
:1003500091098F739927089585E891E00E94A00183
:1003600021E0892B09F420E0822F0895FC01848D7F
:10037000DF01A80FB11DA35ABF4F2C91848D90E0CF
:1003800001968F739927848FA689B7892C93A089AA
:10039000B1898C9180648C93938D848D981306C061
:1003A0000288F389E02D80818F7D80830895EF920C
:1003B000FF920F931F93CF93DF93EC0181E0888F1F
:1003C0009B8D8C8D981305C0E889F989808185FD06
:1003D00024C0F62E0B8D10E00F5F1F4F0F731127F7
:1003E000E02E8C8DE8120CC00FB607FCFACFE8891E
:1003F000F989808185FFF5CFCE010E94B601F1CF4A
:100400008B8DFE01E80FF11DE35AFF4FF0820B8F39
:10041000EA89FB898081806207C0EE89FF89608359
:10042000E889F98980818064808381E090E0DF91B0
:10043000CF911F910F91FF90EF900895CF93DF938D
:10044000EC01888D8823C9F0EA89FB89808185FDCC
:1004500005C0A889B9898C9186FD0FC00FB607FC2D
:10046000F5CF808185FFF2CFA889B9898C9185FF6E
:10047000EDCFCE010E94B601E7CFDF91CF91089575
:1004800080E090E0892B29F00E94AC0181110C944E
:1004900000000895CF92DF92EF92FF920F931F9387
:1004A000CF93DF936C017A018B01C0E0D0E0CE15D1
:1004B000DF0589F0D8016D918D01D601ED91FC9198
:1004C0000190F081E02DC6010995892B11F47E0180
:1004D00002C02196ECCFC701DF91CF911F910F9100
:1004E000FF90EF90DF90CF900895089580E090E026
:1004F0000895CF93DF93009779F0FC0101900020DD
:10050000E9F73197AF01481B590BBC0185E891E031
:100510000E944A02EC0102C0C0E0D0E042E050E09C
:1005200069E171E085E891E00E944A028C0F9D1F0D
:10053000DF91CF9108950E9436051F920F920FB65A
:100540000F9211242F933F938F939F93AF93BF9359
:100550008091810190918201A0918301B0918401E9
:100560003091800123E0230F2D3720F40196A11D47
:10057000B11D05C026E8230F0296A11DB11D2093D1
:1005800080018093810190938201A0938301B093B5
:10059000840180917C0190917D01A0917E01B091B8
:1005A0007F010196A11DB11D80937C0190937D0177
:1005B000A0937E01B0937F01BF91AF919F918F91E6
:1005C0003F912F910F900FBE0F901F9018951F9283
:1005D0000F920FB60F9211242F933F934F935F9377
:1005E0006F937F938F939F93AF93BF93EF93FF93FB
:1005F00085E891E00E94B601FF91EF91BF91AF9124
:100600009F918F917F916F915F914F913F912F912A
:100610000F900FBE0F901F9018951F920F920FB65C
:100620000F9211242F938F939F93EF93FF93E09159
:100630009501F09196018081E0919B01F0919C01E0
:1006400082FD12C0908180919E018F5F8F732091F7
:100650009F01821751F0E0919E01F0E0EB57FE4FB1
:10066000958F80939E0101C08081FF91EF919F91B2
:100670008F912F910F900FBE0F901F901895789427
:1006800084B5826084BD84B5816084BD85B5826097
:1006900085BD85B5816085BD80916E008160809348
:1006A0006E001092810080918100826080938100B1
:1006B00080918100816080938100809180008160C1
:1006C000809380008091B10084608093B10080911C
:1006D000B00081608093B00080917A008460809344
:1006E0007A0080917A00826080937A0080917A000B
:1006F000816080937A0080917A00806880937A008C
:100700001092C10061E08AE00E94330162E08FE054
:100710000E94330162E080E10E9433010E948C005C
:1007200081E080937B011092790188EE93E0A0E054
:10073000B0E08093740190937501A0937601B0931B
:1007400077010E948C00D1E088ECC82ED12CE12CDE
:10075000F12C80917B01882309F485C08FE00E94F1
:100760000A0121E0892B09F420E020937A0180918D
:100770000601281709F477C08CE191E00E94790204
:1007800020917A013FB7F894809181019091820184
:10079000A0918301B09184013FBF211109C08093D2
:1007A000680190936901A0936A01B0936B0157C0EF
:1007B00040916401509165016091660170916701FB
:1007C000841B950BA60BB70B843F9140A105B10587
:1007D00080F484E291E00E94790281E00E94DD00D1
:1007E00010927401109275011092760110927701A7
:1007F00036C08EE291E00E947902809100019091D2
:100800000101A0910201B0910301885C9109A10945
:10081000B109883C9105A105B10548F0809300011C
:1008200090930101A0930201B093030108C0C0920C
:100830000001D0920101E0920201F0920301809147
:10084000000190910101092E000CAA0BBB0B8093B3
:10085000740190937501A0937601B0937701809114
:100860007A018093060180917901882309F473C08D
:1008700080E10E940A0121E0892B09F420E0209305
:10088000780180910501281709F465C08FE391E094
:100890000E947902209178013FB7F89480918101FC
:1008A00090918201A0918301B09184013FBF2111F9
:1008B00009C08093640190936501A0936601B09391
:1008C000670145C0409168015091690160916A01DA
:1008D00070916B01841B950BA60BB70B843F914065
:1008E000A105B10580F487E491E00E94790281E0DE
:1008F0000E94DD0010927401109275011092760131
:100900001092770124C081E591E00E9479028091E4
:10091000000190910101A0910201B091030188535F
:100920009F4FAF4FBF4F8093000190930101A09361
:100930000201B0930301092E000CAA0BBB0B80939C
:10094000740190937501A0937601B0937701809123
:100950007801809305018091740190917501A091B7
:100960007601B0917701892B8A2B8B2B09F448C033
:100970002FB7F8948091810190918201A091830119
:10098000B09184012FBF8093700190937101A09367
:100990007201B093730140916C0150916D016091AF
:1009A0006E0170916F01841B950BA60BB70B4091E4
:1009B000740150917501609176017091770148172B
:1009C00059076A077B07E0F4C0910401CC2311F0BA
:1009D00080E001C081E00E94DD00CD27C0930401CA
:1009E0008091700190917101A0917201B091730199
:1009F00080936C0190936D01A0936E01B0936F0191
:100A00000E944002A6CEE5E8F1E01382128288EE51
:100A100093E0A0E0B0E084839583A683B7838BE066
:100A200091E09183808385EC90E09587848784ECC6
:100A300090E09787868780EC90E0918B808B81ECAB
:100A400090E0938B828B82EC90E0958B848B86EC8C
:100A500090E0978B868B118E128E138E148E0895D4
:100A6000EE0FFF1F0590F491E02D099481E090E0D6
:0A0A7000F8940C943B05F894FFCFB6
:100A7A00E803000001010100000000D7014A026FEB
:100A8A00011E02A0017E0192010D0A00656E7472B8
:100A9A006F75310031204465736C6967610046697E
:100AAA006361206D6169732072617069646F0065AA
:100ABA006E74726F75320032204465736C696761B7
:100ACA000046696361206D616973206465766167B8
:040ADA006172000045
:00000001FF
