:100000000C9462000C948A000C948A000C948A0070
:100010000C948A000C948A000C948A000C948A0038
:100020000C948A000C948A000C948A000C948A0028
:100030000C948A000C948A000C948A000C948A0018
:100040000C9475020C948A000C94E5020C94BF0287
:100050000C948A000C948A000C948A000C948A00F8
:100060000C948A000C948A000000000024002700F1
:100070002A000000000023002600290000000000E4
:10008000250028002B0004040404040404040202D4
:100090000202020203030303030301020408102007
:1000A0004080010204081020010204081020000012
:1000B0000008000201000003040700000000000027
:1000C0000000F00411241FBECFEFD8E0DEBFCDBF8B
:1000D00011E0A0E0B1E0E4E5FAE002C005900D9285
:1000E000A034B107D9F721E0A0E4B1E001C01D922E
:1000F000AC3FB207E1F710E0C2E6D0E004C02197C0
:10010000FE010E941D05C136D107C9F70E941703E1
:100110000C9428050C940000833081F028F4813081
:1001200099F08230A1F008958730A9F08830B9F0B5
:100130008430D1F4809180008F7D03C08091800055
:100140008F7780938000089584B58F7702C084B53F
:100150008F7D84BD08958091B0008F7703C080911A
:10016000B0008F7D8093B00008951F93CF93DF93ED
:10017000E8EBF0E09491E4EAF0E0D491E0E9F0E01B
:10018000C491CC23D9F0182F992319F0892F0E94FC
:100190008C00EC2FF0E0EE0FFF1FE458FF4FA5910D
:1001A000B4918FB7F894111105C09C91ED2FE09593
:1001B000E92302C0EC91ED2BEC938FBFDF91CF913F
:1001C0001F910895CF93DF93282F30E0F901E25576
:1001D000FF4F8491F901E656FF4FD491F901EA5798
:1001E000FF4FC491CC2391F081110E948C00EC2F21
:1001F000F0E0EE0FFF1FEE58FF4FA591B491EC9188
:10020000ED2381E090E021F480E002C080E090E006
:10021000DF91CF910895CF93DF9390E0FC01E656F4
:10022000FF4F2491FC01EA57FF4F8491882361F12D
:1002300090E0880F991FFC01E859FF4FC591D491B8
:10024000FC01E458FF4FA591B491611109C09FB71B
:10025000F8948881209582238883EC912E230BC00B
:10026000623061F49FB7F8943881822F80958323A0
:100270008883EC912E2B2C939FBF06C08FB7F894E8
:10028000E8812E2B28838FBFDF91CF910895FC0149
:10029000538D448D252F30E0842F90E0821B930BEB
:1002A000541710F0CF96089501970895FC01918D91
:1002B000828D981761F0828DDF01A80FB11D5D96C8
:1002C0008C91928D9F5F9F73928F90E008958FEF36
:1002D0009FEF0895FC01918D828D981731F0828DEA
:1002E000E80FF11D858D90E008958FEF9FEF089541
:1002F000FC01918D228D892F90E0805C9F4F821BA5
:1003000091098F73992708958FE591E00E947801F4
:1003100021E0892B09F420E0822F0895FC01848DCF
:10032000DF01A80FB11DA35ABF4F2C91848D90E01F
:1003300001968F739927848FA689B7892C93A089FA
:10034000B1898C9180648C93938D848D981306C0B1
:100350000288F389E02D80818F7D80830895EF925C
:10036000FF920F931F93CF93DF93EC0181E0888F6F
:100370009B8D8C8D981305C0E889F989808185FD56
:1003800024C0F62E0B8D10E00F5F1F4F0F73112747
:10039000E02E8C8DE8120CC00FB607FCFACFE8896E
:1003A000F989808185FFF5CFCE010E948E01F1CFC2
:1003B0008B8DFE01E80FF11DE35AFF4FF0820B8F8A
:1003C000EA89FB898081806207C0EE89FF896083AA
:1003D000E889F98980818064808381E090E0DF9101
:1003E000CF911F910F91FF90EF900895CF93DF93DE
:1003F000EC01888D8823C9F0EA89FB89808185FD1D
:1004000005C0A889B9898C9186FD0FC00FB607FC7D
:10041000F5CF808185FFF2CFA889B9898C9185FFBE
:10042000EDCFCE010E948E01E7CFDF91CF910895ED
:1004300080E090E0892B29F00E94840181110C94C6
:1004400000000895CF92DF92EF92FF920F931F93D7
:10045000CF93DF936C017A018B01C0E0D0E0CE1521
:10046000DF0589F0D8016D918D01D601ED91FC91E8
:100470000190F081E02DC6010995892B11F47E01D0
:1004800002C02196ECCFC701DF91CF911F910F9150
:10049000FF90EF90DF90CF900895089580E090E076
:1004A0000895CF93DF93009779F0FC01019000202D
:1004B000E9F73197AF01481B590BBC018FE591E07B
:1004C0000E942202EC0102C0C0E0D0E042E050E015
:1004D00069E171E08FE591E00E9422028C0F9D1F7F
:1004E000DF91CF9108950E9423051F920F920FB6BE
:1004F0000F9211242F933F938F939F93AF93BF93AA
:1005000080915B0190915C01A0915D01B0915E01D1
:1005100030915A0123E0230F2D3720F40196A11DBD
:10052000B11D05C026E8230F0296A11DB11D209321
:100530005A0180935B0190935C01A0935D01B0939D
:100540005E018091560190915701A0915801B091A0
:1005500059010196A11DB11D809356019093570139
:10056000A0935801B0935901BF91AF919F918F9182
:100570003F912F910F900FBE0F901F9018951F92D3
:100580000F920FB60F9211242F933F934F935F93C7
:100590006F937F938F939F93AF93BF93EF93FF934B
:1005A0008FE591E00E948E01FF91EF91BF91AF9195
:1005B0009F918F917F916F915F914F913F912F917B
:1005C0000F900FBE0F901F9018951F920F920FB6AD
:1005D0000F9211242F938F939F93EF93FF93E091AA
:1005E0006F01F09170018081E0917501F0917601C9
:1005F00082FD12C09081809178018F5F8F7320916E
:100600007901821751F0E0917801F0E0E15AFE4F54
:10061000958F8093780101C08081FF91EF919F9128
:100620008F912F910F900FBE0F901F901895789477
:1006300084B5826084BD84B5816084BD85B58260E7
:1006400085BD85B5816085BD80916E008160809398
:100650006E00109281008091810082608093810001
:100660008091810081608093810080918000816011
:10067000809380008091B10084608093B10080916C
:10068000B00081608093B00080917A008460809394
:100690007A0080917A00826080937A0080917A005B
:1006A000816080937A0080917A00806880937A00DC
:1006B0001092C10061E08AE00E940B0162E08FE0CD
:1006C0000E940B0162E080E10E940B0181E08093B7
:1006D00055018093540188EE93E0A0E0B0E0809350
:1006E000500190935101A0935201B0935301E091B6
:1006F0006F01F091700182E08083E0916B01F091D5
:100700006C011082E0916D01F0916E018FEC80839D
:1007100010927701E0917301F091740186E080837B
:10072000E0917101F0917201808180618083E0919C
:100730007101F0917201808188608083E091710184
:10074000F0917201808180688083E0917101F09165
:10075000720180818F7D8083D1E088ECC82ED12CFE
:10076000E12CF12C80915501882309F477C08FE0AA
:100770000E94E200C1E0892B09F4C0E080910601EB
:10078000C81709F46BC02FB7F89480915B01909162
:100790005C01A0915D01B0915E012FBFCC2349F0B7
:1007A0008093440190934501A0934601B093470183
:1007B00053C04091400150914101609142017091BC
:1007C0004301841B950BA60BB70B843F9140A105F9
:1007D000B10560F481E00E94B500109250011092C2
:1007E0005101109252011092530136C08CE191E0F8
:1007F0000E9451028091000190910101A09102019B
:10080000B0910301885C9109A109B109883C910567
:10081000A105B10548F08093000190930101A093D8
:100820000201B093030108C0C0920001D0920101FF
:10083000E0920201F0920301809100019091010188
:10084000092E000CAA0BBB0B809350019093510111
:10085000A0935201B0935301C093060180915401BB
:10086000882309F465C080E10E94E200C1E0892B81
:1008700009F4C0E080910501C81709F459C02FB7E9
:10088000F89480915B0190915C01A0915D01B09121
:100890005E012FBFCC2349F080934001909341012A
:1008A000A0934201B093430141C040914401509153
:1008B00045016091460170914701841B950BA60B81
:1008C000B70B843F9140A105B10560F481E00E941F
:1008D000B5001092500110925101109252011092E5
:1008E000530124C08DE291E00E94510280910001E9
:1008F00090910101A0910201B091030188539F4F93
:10090000AF4FBF4F8093000190930101A09302016C
:10091000B0930301092E000CAA0BBB0B809350016E
:1009200090935101A0935201B0935301C0930501DC
:100930008091500190915101A0915201B0915301C9
:10094000892B8A2B8B2B09F448C02FB7F894809100
:100950005B0190915C01A0915D01B0915E012FBFA0
:1009600080934C0190934D01A0934E01B0934F01A1
:10097000409148015091490160914A0170914B01A9
:10098000841B950BA60BB70B409150015091510160
:100990006091520170915301481759076A077B070C
:1009A000E0F4C0910401CC2311F080E001C081E0AB
:1009B0000E94B500CD27C093040180914C01909115
:1009C0004D01A0914E01B0914F0180934801909349
:1009D0004901A0934A01B0934B010E941802C2CE74
:1009E000EFE5F1E01382128288EE93E0A0E0B0E040
:1009F00084839583A683B7838BE091E09183808382
:100A000085EC90E09587848784EC90E097878687D3
:100A100080EC90E0918B808B81EC90E0938B828BCB
:100A200082EC90E0958B848B86EC90E0978B868BA4
:100A3000118E128E138E148E0895EE0FFF1F0590E7
:100A4000F491E02D099481E090E0F8940C9428054D
:040A5000F894FFCF48
:100A5400E803000001010100000000AF0122024789
:100A640001F601780156016A010D0A0046696361C5
:100A7400206D6169732072617069646F00466963F7
:100A840061206D616973206465766167617200003D
:00000001FF
